{"abi":[{"type":"constructor","inputs":[],"stateMutability":"nonpayable"},{"type":"receive","stateMutability":"payable"},{"type":"function","name":"advanceSeason","inputs":[],"outputs":[],"stateMutability":"nonpayable"},{"type":"function","name":"claimBounty","inputs":[{"name":"batch","type":"uint8","internalType":"uint8"},{"name":"tier","type":"uint8","internalType":"uint8"}],"outputs":[],"stateMutability":"nonpayable"},{"type":"function","name":"claimReferral","inputs":[{"name":"referee","type":"address","internalType":"address"}],"outputs":[],"stateMutability":"nonpayable"},{"type":"function","name":"claimStreak","inputs":[{"name":"milestoneIndex","type":"uint8","internalType":"uint8"}],"outputs":[],"stateMutability":"nonpayable"},{"type":"function","name":"currentSeason","inputs":[],"outputs":[{"name":"","type":"uint256","internalType":"uint256"}],"stateMutability":"view"},{"type":"function","name":"dailyEligible","inputs":[{"name":"","type":"uint256","internalType":"uint256"},{"name":"","type":"uint32","internalType":"uint32"},{"name":"","type":"address","internalType":"address"}],"outputs":[{"name":"","type":"bool","internalType":"bool"}],"stateMutability":"view"},{"type":"function","name":"distributeLeaderboard","inputs":[{"name":"day","type":"uint32","internalType":"uint32"},{"name":"winners","type":"address[3]","internalType":"address[3]"}],"outputs":[],"stateMutability":"nonpayable"},{"type":"function","name":"distributeLottery","inputs":[{"name":"day","type":"uint32","internalType":"uint32"},{"name":"winner","type":"address","internalType":"address"},{"name":"amount","type":"uint256","internalType":"uint256"}],"outputs":[],"stateMutability":"nonpayable"},{"type":"function","name":"feeAccrued","inputs":[{"name":"","type":"address","internalType":"address"}],"outputs":[{"name":"","type":"uint256","internalType":"uint256"}],"stateMutability":"view"},{"type":"function","name":"fund","inputs":[],"outputs":[],"stateMutability":"payable"},{"type":"function","name":"getStreakMilestoneCount","inputs":[],"outputs":[{"name":"","type":"uint256","internalType":"uint256"}],"stateMutability":"view"},{"type":"function","name":"lastMintDay","inputs":[{"name":"","type":"uint256","internalType":"uint256"},{"name":"","type":"address","internalType":"address"}],"outputs":[{"name":"","type":"uint32","internalType":"uint32"}],"stateMutability":"view"},{"type":"function","name":"leaderboardAmounts","inputs":[{"name":"","type":"uint256","internalType":"uint256"}],"outputs":[{"name":"","type":"uint256","internalType":"uint256"}],"stateMutability":"view"},{"type":"function","name":"leaderboardPaid","inputs":[{"name":"","type":"uint256","internalType":"uint256"},{"name":"","type":"uint32","internalType":"uint32"}],"outputs":[{"name":"","type":"bool","internalType":"bool"}],"stateMutability":"view"},{"type":"function","name":"lotteryPaid","inputs":[{"name":"","type":"uint256","internalType":"uint256"},{"name":"","type":"uint32","internalType":"uint32"}],"outputs":[{"name":"","type":"bool","internalType":"bool"}],"stateMutability":"view"},{"type":"function","name":"onMint","inputs":[{"name":"player","type":"address","internalType":"address"},{"name":"feeAmount","type":"uint256","internalType":"uint256"},{"name":"","type":"uint8","internalType":"uint8"}],"outputs":[],"stateMutability":"nonpayable"},{"type":"function","name":"owner","inputs":[],"outputs":[{"name":"","type":"address","internalType":"address"}],"stateMutability":"view"},{"type":"function","name":"recordTierDrop","inputs":[{"name":"player","type":"address","internalType":"address"},{"name":"tier","type":"uint8","internalType":"uint8"},{"name":"batch","type":"uint8","internalType":"uint8"}],"outputs":[],"stateMutability":"nonpayable"},{"type":"function","name":"referralAmount","inputs":[],"outputs":[{"name":"","type":"uint256","internalType":"uint256"}],"stateMutability":"view"},{"type":"function","name":"referralPaid","inputs":[{"name":"","type":"address","internalType":"address"}],"outputs":[{"name":"","type":"bool","internalType":"bool"}],"stateMutability":"view"},{"type":"function","name":"referralThreshold","inputs":[],"outputs":[{"name":"","type":"uint256","internalType":"uint256"}],"stateMutability":"view"},{"type":"function","name":"referralsActive","inputs":[],"outputs":[{"name":"","type":"bool","internalType":"bool"}],"stateMutability":"view"},{"type":"function","name":"referrerOf","inputs":[{"name":"","type":"address","internalType":"address"}],"outputs":[{"name":"","type":"address","internalType":"address"}],"stateMutability":"view"},{"type":"function","name":"renounceOwnership","inputs":[],"outputs":[],"stateMutability":"nonpayable"},{"type":"function","name":"setLeaderboardAmounts","inputs":[{"name":"amounts","type":"uint256[3]","internalType":"uint256[3]"}],"outputs":[],"stateMutability":"nonpayable"},{"type":"function","name":"setReferralAmount","inputs":[{"name":"amount","type":"uint256","internalType":"uint256"}],"outputs":[],"stateMutability":"nonpayable"},{"type":"function","name":"setReferralsActive","inputs":[{"name":"active","type":"bool","internalType":"bool"}],"outputs":[],"stateMutability":"nonpayable"},{"type":"function","name":"setReferrer","inputs":[{"name":"referrer","type":"address","internalType":"address"}],"outputs":[],"stateMutability":"nonpayable"},{"type":"function","name":"setStreakMilestone","inputs":[{"name":"index","type":"uint8","internalType":"uint8"},{"name":"daysReq","type":"uint16","internalType":"uint16"},{"name":"slots","type":"uint16","internalType":"uint16"},{"name":"blockReward","type":"uint16","internalType":"uint16"}],"outputs":[],"stateMutability":"nonpayable"},{"type":"function","name":"setTierBounty","inputs":[{"name":"batch","type":"uint8","internalType":"uint8"},{"name":"tier","type":"uint8","internalType":"uint8"},{"name":"amount","type":"uint256","internalType":"uint256"}],"outputs":[],"stateMutability":"nonpayable"},{"type":"function","name":"setTokenContract","inputs":[{"name":"addr","type":"address","internalType":"address"}],"outputs":[],"stateMutability":"nonpayable"},{"type":"function","name":"snapshotAmount","inputs":[{"name":"","type":"address","internalType":"address"}],"outputs":[{"name":"","type":"uint256","internalType":"uint256"}],"stateMutability":"view"},{"type":"function","name":"streakClaimed","inputs":[{"name":"","type":"uint256","internalType":"uint256"},{"name":"","type":"address","internalType":"address"},{"name":"","type":"uint8","internalType":"uint8"}],"outputs":[{"name":"","type":"bool","internalType":"bool"}],"stateMutability":"view"},{"type":"function","name":"streakDay","inputs":[{"name":"","type":"uint256","internalType":"uint256"},{"name":"","type":"address","internalType":"address"}],"outputs":[{"name":"","type":"uint16","internalType":"uint16"}],"stateMutability":"view"},{"type":"function","name":"streakMilestones","inputs":[{"name":"","type":"uint256","internalType":"uint256"}],"outputs":[{"name":"daysRequired","type":"uint16","internalType":"uint16"},{"name":"slotsTotal","type":"uint16","internalType":"uint16"},{"name":"slotsClaimed","type":"uint16","internalType":"uint16"},{"name":"blockReward","type":"uint16","internalType":"uint16"}],"stateMutability":"view"},{"type":"function","name":"tierBountyAmount","inputs":[{"name":"","type":"uint256","internalType":"uint256"},{"name":"","type":"uint8","internalType":"uint8"},{"name":"","type":"uint8","internalType":"uint8"}],"outputs":[{"name":"","type":"uint256","internalType":"uint256"}],"stateMutability":"view"},{"type":"function","name":"tierBountyClaimed","inputs":[{"name":"","type":"uint256","internalType":"uint256"},{"name":"","type":"uint8","internalType":"uint8"},{"name":"","type":"uint8","internalType":"uint8"}],"outputs":[{"name":"","type":"bool","internalType":"bool"}],"stateMutability":"view"},{"type":"function","name":"tierBountyWinner","inputs":[{"name":"","type":"uint256","internalType":"uint256"},{"name":"","type":"uint8","internalType":"uint8"},{"name":"","type":"uint8","internalType":"uint8"}],"outputs":[{"name":"","type":"address","internalType":"address"}],"stateMutability":"view"},{"type":"function","name":"tokenContract","inputs":[],"outputs":[{"name":"","type":"address","internalType":"address"}],"stateMutability":"view"},{"type":"function","name":"totalMintedByPlayer","inputs":[{"name":"","type":"address","internalType":"address"}],"outputs":[{"name":"","type":"uint256","internalType":"uint256"}],"stateMutability":"view"},{"type":"function","name":"transferOwnership","inputs":[{"name":"newOwner","type":"address","internalType":"address"}],"outputs":[],"stateMutability":"nonpayable"},{"type":"function","name":"vaultBalance","inputs":[],"outputs":[{"name":"","type":"uint256","internalType":"uint256"}],"stateMutability":"view"},{"type":"function","name":"withdraw","inputs":[{"name":"amount","type":"uint256","internalType":"uint256"}],"outputs":[],"stateMutability":"nonpayable"},{"type":"event","name":"LeaderboardDistributed","inputs":[{"name":"season","type":"uint256","indexed":false,"internalType":"uint256"},{"name":"day","type":"uint32","indexed":false,"internalType":"uint32"},{"name":"winners","type":"address[3]","indexed":false,"internalType":"address[3]"},{"name":"amounts","type":"uint256[3]","indexed":false,"internalType":"uint256[3]"}],"anonymous":false},{"type":"event","name":"LotteryDistributed","inputs":[{"name":"season","type":"uint256","indexed":false,"internalType":"uint256"},{"name":"day","type":"uint32","indexed":false,"internalType":"uint32"},{"name":"winner","type":"address","indexed":true,"internalType":"address"},{"name":"amount","type":"uint256","indexed":false,"internalType":"uint256"}],"anonymous":false},{"type":"event","name":"OnMintRecorded","inputs":[{"name":"player","type":"address","indexed":true,"internalType":"address"},{"name":"feeAmount","type":"uint256","indexed":false,"internalType":"uint256"}],"anonymous":false},{"type":"event","name":"OwnershipTransferred","inputs":[{"name":"previousOwner","type":"address","indexed":true,"internalType":"address"},{"name":"newOwner","type":"address","indexed":true,"internalType":"address"}],"anonymous":false},{"type":"event","name":"ReferralClaimed","inputs":[{"name":"referrer","type":"address","indexed":true,"internalType":"address"},{"name":"referee","type":"address","indexed":true,"internalType":"address"},{"name":"amount","type":"uint256","indexed":false,"internalType":"uint256"}],"anonymous":false},{"type":"event","name":"ReferralThresholdCrossed","inputs":[{"name":"referee","type":"address","indexed":true,"internalType":"address"},{"name":"snapshotAmount","type":"uint256","indexed":false,"internalType":"uint256"}],"anonymous":false},{"type":"event","name":"ReferralsToggled","inputs":[{"name":"active","type":"bool","indexed":false,"internalType":"bool"}],"anonymous":false},{"type":"event","name":"ReferrerLinked","inputs":[{"name":"referee","type":"address","indexed":true,"internalType":"address"},{"name":"referrer","type":"address","indexed":true,"internalType":"address"}],"anonymous":false},{"type":"event","name":"SeasonAdvanced","inputs":[{"name":"newSeason","type":"uint256","indexed":false,"internalType":"uint256"}],"anonymous":false},{"type":"event","name":"StreakClaimed","inputs":[{"name":"season","type":"uint256","indexed":false,"internalType":"uint256"},{"name":"player","type":"address","indexed":true,"internalType":"address"},{"name":"milestoneIndex","type":"uint8","indexed":false,"internalType":"uint8"},{"name":"blocks","type":"uint16","indexed":false,"internalType":"uint16"}],"anonymous":false},{"type":"event","name":"StreakMilestoneSet","inputs":[{"name":"index","type":"uint8","indexed":false,"internalType":"uint8"},{"name":"daysRequired","type":"uint16","indexed":false,"internalType":"uint16"},{"name":"slotsTotal","type":"uint16","indexed":false,"internalType":"uint16"},{"name":"blockReward","type":"uint16","indexed":false,"internalType":"uint16"}],"anonymous":false},{"type":"event","name":"TierBountyClaimed","inputs":[{"name":"season","type":"uint256","indexed":false,"internalType":"uint256"},{"name":"batch","type":"uint8","indexed":false,"internalType":"uint8"},{"name":"tier","type":"uint8","indexed":false,"internalType":"uint8"},{"name":"winner","type":"address","indexed":true,"internalType":"address"},{"name":"amount","type":"uint256","indexed":false,"internalType":"uint256"}],"anonymous":false},{"type":"event","name":"TierBountySet","inputs":[{"name":"season","type":"uint256","indexed":false,"internalType":"uint256"},{"name":"batch","type":"uint8","indexed":false,"internalType":"uint8"},{"name":"tier","type":"uint8","indexed":false,"internalType":"uint8"},{"name":"amount","type":"uint256","indexed":false,"internalType":"uint256"}],"anonymous":false},{"type":"event","name":"TierBountyWon","inputs":[{"name":"season","type":"uint256","indexed":false,"internalType":"uint256"},{"name":"batch","type":"uint8","indexed":false,"internalType":"uint8"},{"name":"tier","type":"uint8","indexed":false,"internalType":"uint8"},{"name":"winner","type":"address","indexed":true,"internalType":"address"}],"anonymous":false},{"type":"event","name":"VaultFunded","inputs":[{"name":"from","type":"address","indexed":true,"internalType":"address"},{"name":"amount","type":"uint256","indexed":false,"internalType":"uint256"}],"anonymous":false},{"type":"event","name":"VaultWithdrawn","inputs":[{"name":"to","type":"address","indexed":true,"internalType":"address"},{"name":"amount","type":"uint256","indexed":false,"internalType":"uint256"}],"anonymous":false},{"type":"error","name":"OwnableInvalidOwner","inputs":[{"name":"owner","type":"address","internalType":"address"}]},{"type":"error","name":"OwnableUnauthorizedAccount","inputs":[{"name":"account","type":"address","internalType":"address"}]},{"type":"error","name":"ReentrancyGuardReentrantCall","inputs":[]}],"bytecode":{"object":"0x60808060405234609f573315608c575f8054336001600160a01b0319821681178355916001600160a01b03909116907f8be0079c531659141344cd1fd0a4f28419497f9722a3daafe3b4186f6b6457e09080a360017f9b779b17422d0df92223018b32b4d1fa46e071723d6817e2486d003becc55f005560326017556001600255611fc190816100a48239f35b631e4fbdf760e01b5f525f60045260245ffd5b5f80fdfe608080604052600436101561001c575b50361561001a575f80fd5b005b5f905f3560e01c9081630bf6cc0814611a85575080630d52e5e814611a26578063170eb01b146119de5780631ec09fab1461199a5780632e1a7d4d1461190e57806330f69089146116cb57806334cab8e71461146557806336429ff61461130557806339d823b5146112ba57806355a373d614611291578063646b2a471461126e57806365ab44771461125057806368f646dd1461107c5780636bd68a8f1461105e578063715018a61461101757806377b7b9ed14610fcf5780637eff7eb814610fb15780638156b7ba14610e725780638da5cb5b14610e4b57806392faca3314610de757806393e65ad314610d7a57806397af313114610d205780639b7b4cb614610b1f578063a18a7bfc146109b2578063b0ab54c014610980578063b60d428814610902578063b64ba56b146108ba578063b851d7ea1461087b578063bbcd5bbe14610836578063bcb3962114610818578063be239e3d146107aa578063c685ec2e14610719578063c7da3328146106e0578063c7f34383146106a7578063c9cd6a341461065b578063d043850514610622578063d21cacdf146105e1578063d3072b8314610491578063e61aee5114610320578063f218e178146102d8578063f2fde38b14610265578063f8543d55146102425763fa74904f0361000f573461023f5760409060ff61021036611b4d565b94918491945260056020522091165f5260205260ff60405f2091165f52602052602060405f2054604051908152f35b80fd5b503461023f57602036600319011261023f5761025c611e8d565b60043560165580f35b503461023f57602036600319011261023f5761027f611ab5565b610287611e8d565b6001600160a01b031680156102c45781546001600160a01b03198116821783556001600160a01b03165f516020611f0c5f395f51905f528380a380f35b631e4fbdf760e01b82526004829052602482fd5b503461023f57604036600319011261023f5763ffffffff60406102f9611afb565b92600435815260096020522091165f52602052602060ff60405f2054166040519015158152f35b503461023f57602036600319011261023f5761033a611ab5565b610342611eb3565b6001600160a01b0390811680835260116020526040832054909116330361045d57808252601560205260408220541561042657808252601460205261038e60ff60408420541615611cf1565b808252601460205260408220600160ff19825416179055808252601560205260408220546103ca816003546103c581831115611b7b565b611bbc565b6003556103e68380808085335af16103e0611c1b565b50611c59565b6040519081527f9c21c092f05b64df5ae0cbf557b9bf4e9695cdbeaa13fcf9a0831bce847f0cfb60203392a360015f516020611f6c5f395f51905f525580f35b60405162461bcd60e51b815260206004820152600f60248201526e10995b1bddc81d1a1c995cda1bdb19608a1b6044820152606490fd5b60405162461bcd60e51b815260206004820152600c60248201526b2737ba103932b332b93932b960a11b6044820152606490fd5b503461023f57608036600319011261023f576104ab611adb565b60243561ffff81168091036105dd5760443561ffff81168091036105d9576064359161ffff83168093036105d5576104e1611e8d565b600f5460ff85169490851061057c57506040516104fd81611bc9565b818152826020820152856040820152836060820152600f54600160401b811015610568579161054f5f516020611f2c5f395f51905f529694926105498560016080999701600f55611b21565b90611e1a565b604051938452602084015260408301526060820152a180f35b634e487b7160e01b87526041600452602487fd5b91608093916105d08461054961ffff6105a35f516020611f2c5f395f51905f529a98611b21565b505460201c1691604051926105b784611bc9565b8584528660208501526040840152866060840152611b21565b61054f565b8480fd5b8380fd5b8280fd5b503461023f57602036600319011261023f576020906001600160a01b03610606611ab5565b16815260118252604060018060a01b0391205416604051908152f35b503461023f57602036600319011261023f576020906040906001600160a01b0361064a611ab5565b168152601583522054604051908152f35b503461023f5760409060ff61066f36611b4d565b94918491945260046020522091165f5260205260ff60405f2091165f52602052602060405f2060018060a01b03905416604051908152f35b503461023f57602036600319011261023f576020906040906001600160a01b036106cf611ab5565b168152601383522054604051908152f35b503461023f57602036600319011261023f576020906040906001600160a01b03610708611ab5565b168152601283522054604051908152f35b503461023f57606036600319011261023f577fad6e63f724beb7228ea78d8e7cc0d564337082ccbb38b5a59ae6309d5353ecd7610754611adb565b61075c611aeb565b6107a460443561076a611e8d565b600254865260056020526040862060ff85165f5260205260405f2060ff84165f526020528060405f20556002549260405194859485611d4e565b0390a180f35b503461023f57606036600319011261023f576107c4611afb565b604435916001600160a01b038316830361023f57604063ffffffff91600435815260076020522091165f5260205260405f209060018060a01b03165f52602052602060ff60405f2054166040519015158152f35b503461023f578060031936011261023f576020600254604051908152f35b503461023f57602036600319011261023f57610850611ab5565b610858611e8d565b600180546001600160a01b0319166001600160a01b039290921691909117905580f35b503461023f57602036600319011261023f5760209060ff906040906001600160a01b036108a6611ab5565b168152601484522054166040519015158152f35b503461023f5760409060ff6108ce36611b4d565b94918491945260066020522091165f5260205260ff60405f2091165f52602052602060ff60405f2054166040519015158152f35b508060031936011261023f5734156109525761092034600354611cd0565b6003556040513481527fba24bd9b798cca64d1031eda1ced9398802343e44e07779bb510d7a21ddddef160203392a280f35b60405162461bcd60e51b815260206004820152600660248201526509cde408aa8960d31b6044820152606490fd5b503461023f57602036600319011261023f5760043560038110156109ae5760209150600a0154604051908152f35b5080fd5b503461023f57602036600319011261023f576109cc611ab5565b338252601160205260408220546001600160a01b0316610aec576001600160a01b0316338114610ab7578015610a835760ff6018541615610a4b573380835260116020526040832080546001600160a01b031916831790557fdd6e8f151d52d1f3e38f0bc83511e4b56226815bccdf38c29c4debc4626fc1828380a380f35b60405162461bcd60e51b815260206004820152601060248201526f149959995c9c985b1cc81c185d5cd95960821b6044820152606490fd5b60405162461bcd60e51b815260206004820152600c60248201526b5a65726f206164647265737360a01b6044820152606490fd5b60405162461bcd60e51b815260206004820152600d60248201526c14d95b198b5c9959995c9c985b609a1b6044820152606490fd5b60405162461bcd60e51b815260206004820152600b60248201526a105b1c9958591e481cd95d60aa1b6044820152606490fd5b503461023f57608036600319011261023f57610b39611b0e565b366084116109ae57610b49611e8d565b610b51611eb3565b6002549081835260096020526040832063ffffffff82165f52602052610b7e60ff60405f20541615611d70565b829063ffffffff16815b6003831015610bed57610be5600191858752600760205260408720845f5260205260405f20610bbe610bb987611df4565b611e06565b848060a01b03165f52602052610bda60ff60405f205416611db2565b84600a015490611cd0565b920191610b88565b610c2b91939250610c02600354821115611b7b565b828552600960205260408520845f5260205260405f20600160ff19825416179055600354611bbc565b600355825b6003811015610c6e57600190610c68858080806001600160a01b03610c57610bb988611df4565b1686600a0154905af16103e0611c1b565b01610c30565b5090604051918252602082015260408101602483915b60038310610cf25750505060a08101600a9083905b60038210610cdc57847f05a1c2e5d52a05828205c8cbf9964f05c5fa024c74bd0169d30e0a97d211e18d61010086a160015f516020611f6c5f395f51905f525580f35b6001602081928554815201930191019091610c99565b81356001600160a01b0381169190829003610d1c5760208160019382935201920192019190610c84565b8580fd5b503461023f57602036600319011261023f5760043590600f5482101561023f576080610d4b83611b21565b505461ffff604051918181168352818160101c166020840152818160201c16604084015260301c166060820152f35b503461023f578060031936011261023f57610d93611e8d565b60025460018101809111610dd3576020817f1bc4f0cbad4ca22b6b6e7129c43be309c4649d3b725806919820cdd37e2f411292600255604051908152a180f35b634e487b7160e01b82526011600452602482fd5b503461023f57602036600319011261023f576004358015158091036109ae5760207f8959b7aa02e18244a53ef4af8400d07a0227d5d79957975a2d0a79ef97c8a15c91610e32611e8d565b60ff196018541660ff821617601855604051908152a180f35b503461023f578060031936011261023f57546040516001600160a01b039091168152602090f35b503461023f57606036600319011261023f57610e8c611b0e565b7fb9a73b2029b16c929e22652fca7bd79a325a77c19d5ff438f843be9c62a0585b6060610eb7611a9f565b604435610ec2611e8d565b610eca611eb3565b63ffffffff600254928388526008602052604088208288165f52602052610ef860ff60405f20541615611d70565b8388526007602052604088208288165f5260205260405f2060018060a01b0382165f52602052610f2e60ff60405f205416611db2565b610f3c600354841115611b7b565b8388526008602052604088208288165f5260205260405f20600160ff19825416179055610f6b83600354611bbc565b6003556001600160a01b031695610f8b88808080878c5af16103e0611c1b565b6040519384521660208301526040820152a260015f516020611f6c5f395f51905f525580f35b503461023f578060031936011261023f576020600f54604051908152f35b503461023f57604036600319011261023f5763ffffffff6040610ff0611afb565b92600435815260086020522091165f52602052602060ff60405f2054166040519015158152f35b503461023f578060031936011261023f57611030611e8d565b80546001600160a01b03198116825581906001600160a01b03165f516020611f0c5f395f51905f528280a380f35b503461023f578060031936011261023f576020601654604051908152f35b503461023f57604036600319011261023f57611096611adb565b61109e611aeb565b906110a7611eb3565b6002549182845260046020526040842060ff83165f5260205260405f2060ff82165f5260205260405f2060018060a01b03905416330361121e5782845260066020526040842060ff83165f5260205260405f2060ff82165f5260205261111460ff60405f20541615611cf1565b82845260056020526040842060ff83165f5260205260405f2060ff82165f5260205260405f20549182156111ed576111d67fc923cf9b2c2aebbb91e6000e1829d66ba8dc441eba3594da0abb61abec68072493611175600354821115611b7b565b85875260066020526040872060ff84165f5260205260405f2060ff85165f5260205260405f20600160ff198254161790556111b281600354611bbc565b6003556111c88780808085335af16103e0611c1b565b604051938493339785611d4e565b0390a260015f516020611f6c5f395f51905f525580f35b60405162461bcd60e51b81526020600482015260096024820152684e6f20626f756e747960b81b6044820152606490fd5b60405162461bcd60e51b815260206004820152600a6024820152692737ba103bb4b73732b960b11b6044820152606490fd5b503461023f578060031936011261023f576020601754604051908152f35b503461023f578060031936011261023f57602060ff601854166040519015158152f35b503461023f578060031936011261023f576001546040516001600160a01b039091168152602090f35b503461023f57604036600319011261023f5760406112d6611a9f565b916004358152600e602052209060018060a01b03165f52602052602063ffffffff60405f205416604051908152f35b503461023f57606036600319011261023f5761131f611ab5565b611327611aeb565b61132f611acb565b9061134560018060a01b03600154163314611c97565b6002549260018060a01b03169283855260136020526040852080549060018201809211611451575580855260046020526040852060ff84165f5260205260405f2060ff83165f5260205260405f2060018060a01b039054161580611422575b6113ac578480f35b60ff606092817fc368925b8824e97cc4f6634363730e159107fbbc477582ffe62288746c0c9544958489526004602052604089208282165f5260205260405f208284165f5260205260405f208860018060a01b0319825416179055604051948552166020840152166040820152a25f8080808480f35b5080855260056020526040852060ff84165f5260205260405f2060ff83165f5260205260405f205415156113a4565b634e487b7160e01b87526011600452602487fd5b503461161f57602036600319011261161f5761147f611adb565b611487611eb3565b60025490600f549060ff811691821015611692576114a490611b21565b50825f52600d60205260405f2060018060a01b0333165f5260205261ffff60405f20541681549061ffff82161161165a575f84815260106020908152604080832033845282528083208684529091529020546115039060ff1615611cf1565b61ffff808260101c169160201c161015611623575f83815260106020908152604080832033845282528083208584528252909120805460ff19166001179055815461155d9161155791901c61ffff16611cdd565b82611d2f565b60018060a01b036001541661ffff825460301c16813b1561161f575f91604483926040519485938492635e3501ab60e11b845233600485015260248401525af18015611614576115fd575b5061ffff905460301c1690604051928352602083015260408201527f322da3c5dfa5b28ac604f0c6e80d737e4083d6a217f475c6d70191ef6360caae60603392a260015f516020611f6c5f395f51905f525580f35b61160a9194505f90611bf8565b5f9261ffff6115a8565b6040513d5f823e3d90fd5b5f80fd5b60405162461bcd60e51b815260206004820152600f60248201526e14db1bdd1cc8195e1a185d5cdd1959608a1b6044820152606490fd5b60405162461bcd60e51b815260206004820152601060248201526f14dd1c99585ac81d1bdbc81cda1bdc9d60821b6044820152606490fd5b60405162461bcd60e51b8152602060048201526011602482015270496e76616c6964206d696c6573746f6e6560781b6044820152606490fd5b3461161f57606036600319011261161f576116e4611ab5565b6024356116ef611acb565b5061170560018060a01b03600154163314611c97565b6002545f81815260076020908152604080832062015180420463ffffffff168085529083528184206001600160a01b03978816808652908452828520805460ff19166001179055601190935292205490941661185d575b815f52600e60205260405f20845f5260205263ffffffff60405f20541681810361179c575b845f516020611f4c5f395f51905f52602086604051908152a2005b60019093919293019163ffffffff8311611849575f516020611f4c5f395f51905f529360209363ffffffff16820361182457805f52600d845260405f20865f52845260405f2061ffff6117f181835416611cdd565b1661ffff198254161790555b5f52600e835260405f20855f52835260405f209063ffffffff198254161790559184611781565b805f52600d845260405f20865f52845260405f20600161ffff198254161790556117fd565b634e487b7160e01b5f52601160045260245ffd5b835f52601260205260405f20611874848254611cd0565b9055835f52601360205260405f20546017541115806118fa575b1561175c5783601654815f52601260205260405f205481105f146118d75760205f516020611eec5f395f51905f52915b835f52601582528060405f2055604051908152a261175c565b505f526012602052835f516020611eec5f395f51905f52602060405f20546118be565b50835f52601560205260405f20541561188e565b3461161f57602036600319011261161f5760043561192a611e8d565b611932611eb3565b611945816003546103c581831115611b7b565b60035561195b5f80808085335af16103e0611c1b565b6040519081527f1b5775af7e7537be20684ccf94b9c6f4b180dabad653f5b57a234a9c6a3db40b60203392a260015f516020611f6c5f395f51905f5255005b3461161f57606036600319011261161f573660641161161f576119bb611e8d565b60045f5b600381106119c957005b6001906020833593019281600a0155016119bf565b3461161f57604036600319011261161f576119f7611a9f565b6004355f52600d60205260405f209060018060a01b03165f52602052602061ffff60405f205416604051908152f35b3461161f57606036600319011261161f57611a3f611a9f565b611a47611acb565b906004355f52601060205260405f209060018060a01b03165f5260205260ff60405f2091165f52602052602060ff60405f2054166040519015158152f35b3461161f575f36600319011261161f576020906003548152f35b602435906001600160a01b038216820361161f57565b600435906001600160a01b038216820361161f57565b6044359060ff8216820361161f57565b6004359060ff8216820361161f57565b6024359060ff8216820361161f57565b6024359063ffffffff8216820361161f57565b6004359063ffffffff8216820361161f57565b600f54811015611b3957600f5f5260205f2001905f90565b634e487b7160e01b5f52603260045260245ffd5b606090600319011261161f576004359060243560ff8116810361161f579060443560ff8116810361161f5790565b15611b8257565b60405162461bcd60e51b8152602060048201526012602482015271125b9cdd59999a58da595b9d081d985d5b1d60721b6044820152606490fd5b9190820391821161184957565b608081019081106001600160401b03821117611be457604052565b634e487b7160e01b5f52604160045260245ffd5b601f909101601f19168101906001600160401b03821190821017611be457604052565b3d15611c54573d906001600160401b038211611be45760405191611c49601f8201601f191660200184611bf8565b82523d5f602084013e565b606090565b15611c6057565b60405162461bcd60e51b815260206004820152600f60248201526e151c985b9cd9995c8819985a5b1959608a1b6044820152606490fd5b15611c9e57565b60405162461bcd60e51b815260206004820152600a60248201526927b7363c903a37b5b2b760b11b6044820152606490fd5b9190820180921161184957565b61ffff60019116019061ffff821161184957565b15611cf857565b60405162461bcd60e51b815260206004820152600f60248201526e105b1c9958591e4818db185a5b5959608a1b6044820152606490fd5b805461ffff60201b191660209290921b61ffff60201b16919091179055565b9094939260ff9081606094608085019885521660208401521660408201520152565b15611d7757565b60405162461bcd60e51b8152602060048201526013602482015272105b1c9958591e48191a5cdd1c9a589d5d1959606a1b6044820152606490fd5b15611db957565b60405162461bcd60e51b815260206004820152601360248201527257696e6e6572206e6f7420656c696769626c6560681b6044820152606490fd5b6003811015611b395760051b60240190565b356001600160a01b038116810361161f5790565b9190611e7a5780518254602083015163ffffffff1990911661ffff9283161760109190911b63ffff000016178355604082015160609291611e5c911684611d2f565b0151815461ffff60301b191660309190911b61ffff60301b16179055565b634e487b7160e01b5f525f60045260245ffd5b5f546001600160a01b03163303611ea057565b63118cdaa760e01b5f523360045260245ffd5b60025f516020611f6c5f395f51905f525414611edc5760025f516020611f6c5f395f51905f5255565b633ee5aeb560e01b5f5260045ffdfed36c3393fc08b469803bb3b6eeaa16f2b1f83d15d986b5d1bec99ee42d8b3f848be0079c531659141344cd1fd0a4f28419497f9722a3daafe3b4186f6b6457e009e5436a92ee6fb5bddcc83b150ab831e07ce069dcea94964ce0ff1fffc586ee5e26dda48a0ef59c24dd21445f139815a0ab37c09e7cf1ba24eb462f08501c219b779b17422d0df92223018b32b4d1fa46e071723d6817e2486d003becc55f00a26469706673582212209d2387f09645916253d3061d7fc9b8a47bfbcb162869a15e119c4667776b089b64736f6c63430008210033","linkReferences":{}},"methodIdentifiers":{"advanceSeason()":"93e65ad3","claimBounty(uint8,uint8)":"68f646dd","claimReferral(address)":"e61aee51","claimStreak(uint8)":"34cab8e7","currentSeason()":"bcb39621","dailyEligible(uint256,uint32,address)":"be239e3d","distributeLeaderboard(uint32,address[3])":"9b7b4cb6","distributeLottery(uint32,address,uint256)":"8156b7ba","feeAccrued(address)":"c7da3328","fund()":"b60d4288","getStreakMilestoneCount()":"7eff7eb8","lastMintDay(uint256,address)":"39d823b5","leaderboardAmounts(uint256)":"b0ab54c0","leaderboardPaid(uint256,uint32)":"f218e178","lotteryPaid(uint256,uint32)":"77b7b9ed","onMint(address,uint256,uint8)":"30f69089","owner()":"8da5cb5b","recordTierDrop(address,uint8,uint8)":"36429ff6","referralAmount()":"6bd68a8f","referralPaid(address)":"b851d7ea","referralThreshold()":"65ab4477","referralsActive()":"646b2a47","referrerOf(address)":"d21cacdf","renounceOwnership()":"715018a6","setLeaderboardAmounts(uint256[3])":"1ec09fab","setReferralAmount(uint256)":"f8543d55","setReferralsActive(bool)":"92faca33","setReferrer(address)":"a18a7bfc","setStreakMilestone(uint8,uint16,uint16,uint16)":"d3072b83","setTierBounty(uint8,uint8,uint256)":"c685ec2e","setTokenContract(address)":"bbcd5bbe","snapshotAmount(address)":"d0438505","streakClaimed(uint256,address,uint8)":"0d52e5e8","streakDay(uint256,address)":"170eb01b","streakMilestones(uint256)":"97af3131","tierBountyAmount(uint256,uint8,uint8)":"fa74904f","tierBountyClaimed(uint256,uint8,uint8)":"b64ba56b","tierBountyWinner(uint256,uint8,uint8)":"c9cd6a34","tokenContract()":"55a373d6","totalMintedByPlayer(address)":"c7f34383","transferOwnership(address)":"f2fde38b","vaultBalance()":"0bf6cc08","withdraw(uint256)":"2e1a7d4d"},"id":54}